:030000000200A05B
:10000B000201B2415445300D0A0041542B43495073
:10001B004D4F44453D300D0A0041542B4349504D43
:10002B0055583D310D0A0041542B4349505345520D
:10003B005645523D312C383038300D0A0041542B87
:10004B0043494653520D0A0041542B43494F4241F9
:10005B0055443D393630300D0A0041542B43574D32
:08006B004F44453D310D0A0030
:1000830002027CC2AE506176656C20536B766F7250
:0A00930074736F760D0A0000000080
:1000A000758154787F76FFD8FC782F7600D8FC4392
:1000B0008F40758900758AA0758CFFD28CD2A9D229
:1000C000AF751A0175B10175B2007515137516007B
:1000D000751786D2087514007519007C087D027E9C
:1000E000C851D17519017C107D007E0151D175195F
:1000F00000120139300818E515851683851782939B
:10010000600DF512751008D201D204C2080515E57C
:100110001A701A3160E51B6002D2B2E51C6002D28F
:10012000B3E51D6002D2B4E51E6002D2B50519E543
:1001300019B406BD75190080B87930E51929F9E7B9
:10014000FBB4FF028019E519237583087582FA93C1
:10015000FEA3E5192393FF77FF8E838F82E473223A
:100160007518007942E51829F9E7FBB4C802803216
:100170007836E5182328F8E6FC08E6FDECB4FF0223
:100180008028EC4D6010C3ED9401F6FDEC9400FC6A
:1001900018F6EC4D70147836E5182328F876FF0829
:1001A00076FF7930E51829F9EBF70518E518B4065C
:0601B000B222C000C001F4
:1001B600C002C003C004C005F505C005C0E0C0D03C
:1001C60020020520013A4136200611200514A2B06E
:1001D600E51313F513D51128D2058024C206C207EC
:1001E600801EC205C202D2072001157948E514B463
:1001F6000C03E4F51429F9A7130514438F4041367F
:1002060030012D200413200319E512D313F51292A1
:10021600B1D5101CD203020236C2B1C204C2080212
:100226000236D2B1C201C203D208200203438F4074
:10023600514DD0D0D0E0D005E505D005D004D0038F
:10024600D002D001D00032051AE51B6007E51AB5C9
:100256001B02C2B2E51C6007E51AB51C02C2B3E573
:100266001D6007E51AB51D02C2B4E51E6007E51A52
:10027600B51E02C2B522C000C001C002C003C00440
:10028600C005F505C005C0E0C0D0538FBF75110885
:10029600D202D206751300C207AB197519057C0385
:1002A6007D007E051202D18B19D0D0D0E0D005E5B5
:1002B60005D005D004D003D002D001D00032E51914
:1002C60023783628F8EDF608EEF6227942E5192964
:0B02D600F9ECF7E51923783628F8ED65
:1002E100F608EEF622E51923783628F874FFF608A9
:1002F100F622BB0A1D75B10175B2007519017C109A
:100301007D007E1951D17519007C087D007E19513F
:10031100D122BB09127515017516007517867C0867
:100321007D007E0251D122BB0812751500751600A1
:100331007517487C077D007E7D51D122BB07127560
:1003410015007516007517157C067D007E7D51D14F
:1003510022BB06127515007516007517247C057DE4
:10036100007E8051D122BB050A75150075160075F6
:10037100173222BB040A751500751600751748223D
:10038100BB030A75150075160075175322BB020AC7
:1003910075150075160075176522BB01257948E5AD
:1003A1001F29F9E7601CF512751008D201D204C2A9
:1003B10008051FE51FB5140280087C017D007E0140
:1003C10051D1BB0000BBFF0022BB1011D2B2C2B39E
:1003D100C2B4C2B57C007D007E2751D122BB0F0B78
:1003E100D2B27C0E7D097E0651D122BB0E0BC2B268
:1003F1007C0F7D097E0651D122BB0D0BD2B27C0C44
:100401007D017E8651D122BB0C0BC2B27C0D7D01D8
:0E0411007E8651D122BB0B0BD2B27C0A7D003D
:10041F007E2751D122BB0A0BC2B27C0B7D007E27F7
:10042F0051D122BB09078C1B7C0051D122BB080A7A
:10043F00C2B2751B007C0151D122BB070AD2B27523
:10044F001B007C0051D122BB061EE51B600D940AD8
:10045F00500B7C007D007E0051D122940AF51B7C4D
:10046F00067D007E0851D122BB051AE51B240AF533
:10047F001B50097C017D007E0051D1227C057D003F
:10048F007E0851D122BB041EE51B600D940A500B50
:10049F007C007D007E0051D122940AF51B7C047DE7
:1004AF00007E0251D122BB031AE51B240AF51B5013
:1004BF00097C017D007E0051D1227C037D007E02EC
:1004CF0051D122BB0204ECF51B22BB0106D2B2753F
:1004DF001B0022BB0006C2B2751B0022BBFF00220D
:1004EF00BB100BD2B37C007D007E2751D122BB0FF6
:1004FF000BD2B37C0E7D097E0651D122BB0E0BC2EF
:10050F00B37C0F7D097E0651D122BB0D0BD2B37C7C
:10051F000C7D017E8651D122BB0C0BC2B37C0D7DAD
:10052F00017E8651D122BB0B0BD2B37C0A7D007E9C
:0B053F002751D122BB0A0BC2B37C0B7A
:10054A007D007E2751D122BB09078C1C7C0051D12A
:10055A0022BB080AC2B3751C007C0151D122BB0719
:10056A000AD2B3751C007C0051D122BB061EE51CC1
:10057A00600D940A500B7C007D007E0051D12294BC
:10058A000AF51C7C067D007E0851D122BB051AE5BE
:10059A001C240A50097C017D007E0051D122F51CE1
:1005AA007C057D007E0851D122BB041EE51C600D2E
:1005BA00940A500B7C007D007E0051D122940AF5EA
:1005CA001C7C047D007E0251D122BB031AE51C2447
:1005DA000A50097C017D007E0051D122F51C7C0362
:1005EA007D007E0251D122BB0204ECF51C22BB0124
:1005FA0006D2B3751C0022BB0006C2B3751C0022CA
:10060A00BBFF0022BB100BD2B47C007D007E2751B9
:10061A00D122BB0F0BD2B47C0E7D097E0651D122AA
:10062A00BB0E0BC2B47C0F7D097E0651D122BB0DD5
:10063A000BD2B47C0C7D017E8651D122BB0C0BC23D
:10064A00B47C0D7D017E8651D122BB0B0BD2B47CCA
:10065A000A7D007E2751D122BB0A0BC2B47C0B7DD6
:0B066A00007E2751D122BB09068C1D29
:100675007C0051D1BB080AC2B4751D007C0151D163
:1006850022BB070AD2B4751D007C0051D122BB06DE
:100695001EE51D600D940A500B7C007D007E005107
:1006A500D122940AF51D7C067D007E0851D122BB1E
:1006B500051AE51D240A50097C017D007E0051D1F3
:1006C50022F51D7C057D007E0851D122BB041EE567
:1006D5001D600D940A500B7C007D007E0051D122D7
:1006E500940AF51D7C047D007E0251D122BB031ABC
:1006F500E51D240A50097C017D007E0051D122F5BB
:100705001D7C037D007E0251D122BB0204ECF51D48
:1007150022BB0106D2B4751D0022BB0005C2B4750B
:100725001D00BBFF0022BB100BD2B57C007D007EF7
:100735002751D122BB0F0BD2B57C0E7D097E065108
:10074500D122BB0E0BC2B57C0F7D097E0651D1228D
:10075500BB0D0BD2B57C0C7D017E8651D122BB0C25
:100765000BC2B57C0D7D017E8651D122BB0B0BD210
:10077500B57C0A7D007E2751D122BB0A0BC2B57C10
:100785000B7D007E2751D122BB09078C1E7C0051B1
:0E079500D122BB080AC2B5751E007C0151D1ED
:1007A30022BB070AD2B5751E007C0051D122BB06BD
:1007B30020E51E600E940A500C7C007D007E001222
:1007C30002D122940AF51E7C067D007E081202D116
:1007D30022BB051CE51E240A500A7C017D007E0015
:1007E3001202D122F51E7C057D007E081202D12261
:1007F300BB0420E51E600E940A500C7C007D007E35
:10080300001202D122940AF51E7C047D007E02129E
:1008130002D122BB031CE51E240A500A7C017D0081
:100823007E001202D122F51E7C037D007E0212029D
:10083300D122BB0203ECF51EBB0106D2B5751E0027
:1008430022BB0005C2B5751E00BBFF002275140054
:100853007948E7B43A0509E7FB800509B954F3225F
:1008630054F0C414B405012250E2F519EB540FFB04
:1008730009E7BB0209B4FF027B01FC0208B7BB070F
:1008830007FD09E7FE02089FBB0807FD09E7FE0213
:10089300089FBB091FFC09E7FD09E7FE7942E5193B
:1008A30029F9EBF7E51923783628F8EDF608EEF683
:0708B300751905221202E68F
:1008BA007930E51929F9EBF775190522BB0F00BB49
:1008CA000E00BB0D00BB0C00BB0B00BB0A00BB0932
:1008DA0000BB0800BB0700BB0700BB0500BB040048
:1008EA00BB0300BB0200BB0100BB0000BBFF002230
:0C08FA0002F303CA04EF060E072B08509F
:00000001FF
